{
	"data": {
		"bytecode": {
			"linkReferences": {},
			"object": "6080604052348015600e575f80fd5b50610f178061001c5f395ff3fe608060405234801561000f575f80fd5b5060043610610114575f3560e01c80639e7a13ad116100a0578063b63394181161006f578063b6339418146102e1578063bca353be146102fd578063c19d93fb14610307578063cb6a33f814610325578063e0819c9a1461035557610114565b80639e7a13ad14610246578063a621d15e14610277578063a7e1a36414610295578063b39e12b5146102b157610114565b80633a32b549116100e75780633a32b549146101b45780636f760f41146101d25780638701f8ca146101ee5780638bab8dd51461020c5780638fda356d1461023c57610114565b80630cd2636e146101185780631db05a881461013657806322f3e2d41461016657806329cd1d9614610184575b5f80fd5b610120610373565b60405161012d9190610770565b60405180910390f35b610150600480360381019061014b91906107c4565b6103b0565b60405161015d9190610770565b60405180910390f35b61016e6103ca565b60405161017b9190610809565b60405180910390f35b61019e600480360381019061019991906107c4565b610405565b6040516101ab9190610770565b60405180910390f35b6101bc610425565b6040516101c99190610892565b60405180910390f35b6101ec60048036038101906101e791906109de565b610462565b005b6101f6610488565b6040516102039190610892565b60405180910390f35b61022660048036038101906102219190610a38565b610497565b6040516102339190610770565b60405180910390f35b6102446104c3565b005b610260600480360381019061025b91906107c4565b6104ee565b60405161026e929190610a7f565b60405180910390f35b61027f6105a3565b60405161028c9190610770565b60405180910390f35b6102af60048036038101906102aa91906107c4565b6105ac565b005b6102cb60048036038101906102c69190610b0a565b6105d5565b6040516102d89190610892565b60405180910390f35b6102fb60048036038101906102f691906107c4565b610606565b005b610305610649565b005b61030f610675565b60405161031c9190610bc8565b60405180910390f35b61033f600480360381019061033a91906107c4565b610687565b60405161034c9190610809565b60405180910390f35b61035d6106a4565b60405161036a9190610892565b60405180910390f35b5f805f90505f600190505b60015481116103a85780826103939190610c0e565b915080806103a090610c41565b91505061037e565b508091505090565b5f806005836103bf9190610c0e565b905080915050919050565b5f8060018111156103de576103dd610b55565b5b60045f9054906101000a900460ff1660018111156103ff576103fe610b55565b5b14905090565b60028181548110610414575f80fd5b905f5260205f20015f915090505481565b60606040518060400160405280601c81526020017f5468697320697320616e2065787465726e616c2066756e6374696f6e00000000815250905090565b805f836040516104729190610cc2565b9081526020016040518091039020819055505050565b606061049261071b565b905090565b5f818051602081018201805184825260208301602085012081835280955050505050505f915090505481565b5f60045f6101000a81548160ff021916908360018111156104e7576104e6610b55565b5b0217905550565b600381815481106104fd575f80fd5b905f5260205f2090600202015f91509050805f01805461051c90610d05565b80601f016020809104026020016040519081016040528092919081815260200182805461054890610d05565b80156105935780601f1061056a57610100808354040283529160200191610593565b820191905f5260205f20905b81548152906001019060200180831161057657829003601f168201915b5050505050908060010154905082565b5f600154905090565b600281908060018154018082558091505060019003905f5260205f20015f909190919091505550565b60605f83836040516020016105eb929190610da3565b60405160208183030381529060405290508091505092915050565b806001819055507fe5f28171f43fc54876f02589c23cc70d19e06f868cc3811c456e8c61c296a27e813360405161063e929190610e05565b60405180910390a150565b600160045f6101000a81548160ff0219169083600181111561066e5761066d610b55565b5b0217905550565b60045f9054906101000a900460ff1681565b5f81600154111561069b576001905061069f565b5f90505b919050565b60603073ffffffffffffffffffffffffffffffffffffffff16633a32b5496040518163ffffffff1660e01b81526004015f60405180830381865afa1580156106ee573d5f803e3d5ffd5b505050506040513d5f823e3d601f19601f820116820180604052508101906107169190610e9a565b905090565b60606040518060400160405280601c81526020017f5468697320697320616e20696e7465726e616c2066756e6374696f6e00000000815250905090565b5f819050919050565b61076a81610758565b82525050565b5f6020820190506107835f830184610761565b92915050565b5f604051905090565b5f80fd5b5f80fd5b6107a381610758565b81146107ad575f80fd5b50565b5f813590506107be8161079a565b92915050565b5f602082840312156107d9576107d8610792565b5b5f6107e6848285016107b0565b91505092915050565b5f8115159050919050565b610803816107ef565b82525050565b5f60208201905061081c5f8301846107fa565b92915050565b5f81519050919050565b5f82825260208201905092915050565b8281835e5f83830152505050565b5f601f19601f8301169050919050565b5f61086482610822565b61086e818561082c565b935061087e81856020860161083c565b6108878161084a565b840191505092915050565b5f6020820190508181035f8301526108aa818461085a565b905092915050565b5f80fd5b5f80fd5b7f4e487b71000000000000000000000000000000000000000000000000000000005f52604160045260245ffd5b6108f08261084a565b810181811067ffffffffffffffff8211171561090f5761090e6108ba565b5b80604052505050565b5f610921610789565b905061092d82826108e7565b919050565b5f67ffffffffffffffff82111561094c5761094b6108ba565b5b6109558261084a565b9050602081019050919050565b828183375f83830152505050565b5f61098261097d84610932565b610918565b90508281526020810184848401111561099e5761099d6108b6565b5b6109a9848285610962565b509392505050565b5f82601f8301126109c5576109c46108b2565b5b81356109d5848260208601610970565b91505092915050565b5f80604083850312156109f4576109f3610792565b5b5f83013567ffffffffffffffff811115610a1157610a10610796565b5b610a1d858286016109b1565b9250506020610a2e858286016107b0565b9150509250929050565b5f60208284031215610a4d57610a4c610792565b5b5f82013567ffffffffffffffff811115610a6a57610a69610796565b5b610a76848285016109b1565b91505092915050565b5f6040820190508181035f830152610a97818561085a565b9050610aa66020830184610761565b9392505050565b5f80fd5b5f80fd5b5f8083601f840112610aca57610ac96108b2565b5b8235905067ffffffffffffffff811115610ae757610ae6610aad565b5b602083019150836001820283011115610b0357610b02610ab1565b5b9250929050565b5f8060208385031215610b2057610b1f610792565b5b5f83013567ffffffffffffffff811115610b3d57610b3c610796565b5b610b4985828601610ab5565b92509250509250929050565b7f4e487b71000000000000000000000000000000000000000000000000000000005f52602160045260245ffd5b60028110610b9357610b92610b55565b5b50565b5f819050610ba382610b82565b919050565b5f610bb282610b96565b9050919050565b610bc281610ba8565b82525050565b5f602082019050610bdb5f830184610bb9565b92915050565b7f4e487b71000000000000000000000000000000000000000000000000000000005f52601160045260245ffd5b5f610c1882610758565b9150610c2383610758565b9250828201905080821115610c3b57610c3a610be1565b5b92915050565b5f610c4b82610758565b91507fffffffffffffffffffffffffffffffffffffffffffffffffffffffffffffffff8203610c7d57610c7c610be1565b5b600182019050919050565b5f81905092915050565b5f610c9c82610822565b610ca68185610c88565b9350610cb681856020860161083c565b80840191505092915050565b5f610ccd8284610c92565b915081905092915050565b7f4e487b71000000000000000000000000000000000000000000000000000000005f52602260045260245ffd5b5f6002820490506001821680610d1c57607f821691505b602082108103610d2f57610d2e610cd8565b5b50919050565b5f610d408385610c88565b9350610d4d838584610962565b82840190509392505050565b7f20697320617765736f6d652100000000000000000000000000000000000000005f82015250565b5f610d8d600c83610c88565b9150610d9882610d59565b600c82019050919050565b5f610daf828486610d35565b9150610dba82610d81565b91508190509392505050565b5f73ffffffffffffffffffffffffffffffffffffffff82169050919050565b5f610def82610dc6565b9050919050565b610dff81610de5565b82525050565b5f604082019050610e185f830185610761565b610e256020830184610df6565b9392505050565b5f610e3e610e3984610932565b610918565b905082815260208101848484011115610e5a57610e596108b6565b5b610e6584828561083c565b509392505050565b5f82601f830112610e8157610e806108b2565b5b8151610e91848260208601610e2c565b91505092915050565b5f60208284031215610eaf57610eae610792565b5b5f82015167ffffffffffffffff811115610ecc57610ecb610796565b5b610ed884828501610e6d565b9150509291505056fea2646970667358221220f2c998c8724dd4037465cce65334e87950425e15d7885febb5e9584c8f1d349264736f6c634300081a0033",
			"opcodes": "PUSH1 0x80 PUSH1 0x40 MSTORE CALLVALUE DUP1 ISZERO PUSH1 0xE JUMPI PUSH0 DUP1 REVERT JUMPDEST POP PUSH2 0xF17 DUP1 PUSH2 0x1C PUSH0 CODECOPY PUSH0 RETURN INVALID PUSH1 0x80 PUSH1 0x40 MSTORE CALLVALUE DUP1 ISZERO PUSH2 0xF JUMPI PUSH0 DUP1 REVERT JUMPDEST POP PUSH1 0x4 CALLDATASIZE LT PUSH2 0x114 JUMPI PUSH0 CALLDATALOAD PUSH1 0xE0 SHR DUP1 PUSH4 0x9E7A13AD GT PUSH2 0xA0 JUMPI DUP1 PUSH4 0xB6339418 GT PUSH2 0x6F JUMPI DUP1 PUSH4 0xB6339418 EQ PUSH2 0x2E1 JUMPI DUP1 PUSH4 0xBCA353BE EQ PUSH2 0x2FD JUMPI DUP1 PUSH4 0xC19D93FB EQ PUSH2 0x307 JUMPI DUP1 PUSH4 0xCB6A33F8 EQ PUSH2 0x325 JUMPI DUP1 PUSH4 0xE0819C9A EQ PUSH2 0x355 JUMPI PUSH2 0x114 JUMP JUMPDEST DUP1 PUSH4 0x9E7A13AD EQ PUSH2 0x246 JUMPI DUP1 PUSH4 0xA621D15E EQ PUSH2 0x277 JUMPI DUP1 PUSH4 0xA7E1A364 EQ PUSH2 0x295 JUMPI DUP1 PUSH4 0xB39E12B5 EQ PUSH2 0x2B1 JUMPI PUSH2 0x114 JUMP JUMPDEST DUP1 PUSH4 0x3A32B549 GT PUSH2 0xE7 JUMPI DUP1 PUSH4 0x3A32B549 EQ PUSH2 0x1B4 JUMPI DUP1 PUSH4 0x6F760F41 EQ PUSH2 0x1D2 JUMPI DUP1 PUSH4 0x8701F8CA EQ PUSH2 0x1EE JUMPI DUP1 PUSH4 0x8BAB8DD5 EQ PUSH2 0x20C JUMPI DUP1 PUSH4 0x8FDA356D EQ PUSH2 0x23C JUMPI PUSH2 0x114 JUMP JUMPDEST DUP1 PUSH4 0xCD2636E EQ PUSH2 0x118 JUMPI DUP1 PUSH4 0x1DB05A88 EQ PUSH2 0x136 JUMPI DUP1 PUSH4 0x22F3E2D4 EQ PUSH2 0x166 JUMPI DUP1 PUSH4 0x29CD1D96 EQ PUSH2 0x184 JUMPI JUMPDEST PUSH0 DUP1 REVERT JUMPDEST PUSH2 0x120 PUSH2 0x373 JUMP JUMPDEST PUSH1 0x40 MLOAD PUSH2 0x12D SWAP2 SWAP1 PUSH2 0x770 JUMP JUMPDEST PUSH1 0x40 MLOAD DUP1 SWAP2 SUB SWAP1 RETURN JUMPDEST PUSH2 0x150 PUSH1 0x4 DUP1 CALLDATASIZE SUB DUP2 ADD SWAP1 PUSH2 0x14B SWAP2 SWAP1 PUSH2 0x7C4 JUMP JUMPDEST PUSH2 0x3B0 JUMP JUMPDEST PUSH1 0x40 MLOAD PUSH2 0x15D SWAP2 SWAP1 PUSH2 0x770 JUMP JUMPDEST PUSH1 0x40 MLOAD DUP1 SWAP2 SUB SWAP1 RETURN JUMPDEST PUSH2 0x16E PUSH2 0x3CA JUMP JUMPDEST PUSH1 0x40 MLOAD PUSH2 0x17B SWAP2 SWAP1 PUSH2 0x809 JUMP JUMPDEST PUSH1 0x40 MLOAD DUP1 SWAP2 SUB SWAP1 RETURN JUMPDEST PUSH2 0x19E PUSH1 0x4 DUP1 CALLDATASIZE SUB DUP2 ADD SWAP1 PUSH2 0x199 SWAP2 SWAP1 PUSH2 0x7C4 JUMP JUMPDEST PUSH2 0x405 JUMP JUMPDEST PUSH1 0x40 MLOAD PUSH2 0x1AB SWAP2 SWAP1 PUSH2 0x770 JUMP JUMPDEST PUSH1 0x40 MLOAD DUP1 SWAP2 SUB SWAP1 RETURN JUMPDEST PUSH2 0x1BC PUSH2 0x425 JUMP JUMPDEST PUSH1 0x40 MLOAD PUSH2 0x1C9 SWAP2 SWAP1 PUSH2 0x892 JUMP JUMPDEST PUSH1 0x40 MLOAD DUP1 SWAP2 SUB SWAP1 RETURN JUMPDEST PUSH2 0x1EC PUSH1 0x4 DUP1 CALLDATASIZE SUB DUP2 ADD SWAP1 PUSH2 0x1E7 SWAP2 SWAP1 PUSH2 0x9DE JUMP JUMPDEST PUSH2 0x462 JUMP JUMPDEST STOP JUMPDEST PUSH2 0x1F6 PUSH2 0x488 JUMP JUMPDEST PUSH1 0x40 MLOAD PUSH2 0x203 SWAP2 SWAP1 PUSH2 0x892 JUMP JUMPDEST PUSH1 0x40 MLOAD DUP1 SWAP2 SUB SWAP1 RETURN JUMPDEST PUSH2 0x226 PUSH1 0x4 DUP1 CALLDATASIZE SUB DUP2 ADD SWAP1 PUSH2 0x221 SWAP2 SWAP1 PUSH2 0xA38 JUMP JUMPDEST PUSH2 0x497 JUMP JUMPDEST PUSH1 0x40 MLOAD PUSH2 0x233 SWAP2 SWAP1 PUSH2 0x770 JUMP JUMPDEST PUSH1 0x40 MLOAD DUP1 SWAP2 SUB SWAP1 RETURN JUMPDEST PUSH2 0x244 PUSH2 0x4C3 JUMP JUMPDEST STOP JUMPDEST PUSH2 0x260 PUSH1 0x4 DUP1 CALLDATASIZE SUB DUP2 ADD SWAP1 PUSH2 0x25B SWAP2 SWAP1 PUSH2 0x7C4 JUMP JUMPDEST PUSH2 0x4EE JUMP JUMPDEST PUSH1 0x40 MLOAD PUSH2 0x26E SWAP3 SWAP2 SWAP1 PUSH2 0xA7F JUMP JUMPDEST PUSH1 0x40 MLOAD DUP1 SWAP2 SUB SWAP1 RETURN JUMPDEST PUSH2 0x27F PUSH2 0x5A3 JUMP JUMPDEST PUSH1 0x40 MLOAD PUSH2 0x28C SWAP2 SWAP1 PUSH2 0x770 JUMP JUMPDEST PUSH1 0x40 MLOAD DUP1 SWAP2 SUB SWAP1 RETURN JUMPDEST PUSH2 0x2AF PUSH1 0x4 DUP1 CALLDATASIZE SUB DUP2 ADD SWAP1 PUSH2 0x2AA SWAP2 SWAP1 PUSH2 0x7C4 JUMP JUMPDEST PUSH2 0x5AC JUMP JUMPDEST STOP JUMPDEST PUSH2 0x2CB PUSH1 0x4 DUP1 CALLDATASIZE SUB DUP2 ADD SWAP1 PUSH2 0x2C6 SWAP2 SWAP1 PUSH2 0xB0A JUMP JUMPDEST PUSH2 0x5D5 JUMP JUMPDEST PUSH1 0x40 MLOAD PUSH2 0x2D8 SWAP2 SWAP1 PUSH2 0x892 JUMP JUMPDEST PUSH1 0x40 MLOAD DUP1 SWAP2 SUB SWAP1 RETURN JUMPDEST PUSH2 0x2FB PUSH1 0x4 DUP1 CALLDATASIZE SUB DUP2 ADD SWAP1 PUSH2 0x2F6 SWAP2 SWAP1 PUSH2 0x7C4 JUMP JUMPDEST PUSH2 0x606 JUMP JUMPDEST STOP JUMPDEST PUSH2 0x305 PUSH2 0x649 JUMP JUMPDEST STOP JUMPDEST PUSH2 0x30F PUSH2 0x675 JUMP JUMPDEST PUSH1 0x40 MLOAD PUSH2 0x31C SWAP2 SWAP1 PUSH2 0xBC8 JUMP JUMPDEST PUSH1 0x40 MLOAD DUP1 SWAP2 SUB SWAP1 RETURN JUMPDEST PUSH2 0x33F PUSH1 0x4 DUP1 CALLDATASIZE SUB DUP2 ADD SWAP1 PUSH2 0x33A SWAP2 SWAP1 PUSH2 0x7C4 JUMP JUMPDEST PUSH2 0x687 JUMP JUMPDEST PUSH1 0x40 MLOAD PUSH2 0x34C SWAP2 SWAP1 PUSH2 0x809 JUMP JUMPDEST PUSH1 0x40 MLOAD DUP1 SWAP2 SUB SWAP1 RETURN JUMPDEST PUSH2 0x35D PUSH2 0x6A4 JUMP JUMPDEST PUSH1 0x40 MLOAD PUSH2 0x36A SWAP2 SWAP1 PUSH2 0x892 JUMP JUMPDEST PUSH1 0x40 MLOAD DUP1 SWAP2 SUB SWAP1 RETURN JUMPDEST PUSH0 DUP1 PUSH0 SWAP1 POP PUSH0 PUSH1 0x1 SWAP1 POP JUMPDEST PUSH1 0x1 SLOAD DUP2 GT PUSH2 0x3A8 JUMPI DUP1 DUP3 PUSH2 0x393 SWAP2 SWAP1 PUSH2 0xC0E JUMP JUMPDEST SWAP2 POP DUP1 DUP1 PUSH2 0x3A0 SWAP1 PUSH2 0xC41 JUMP JUMPDEST SWAP2 POP POP PUSH2 0x37E JUMP JUMPDEST POP DUP1 SWAP2 POP POP SWAP1 JUMP JUMPDEST PUSH0 DUP1 PUSH1 0x5 DUP4 PUSH2 0x3BF SWAP2 SWAP1 PUSH2 0xC0E JUMP JUMPDEST SWAP1 POP DUP1 SWAP2 POP POP SWAP2 SWAP1 POP JUMP JUMPDEST PUSH0 DUP1 PUSH1 0x1 DUP2 GT ISZERO PUSH2 0x3DE JUMPI PUSH2 0x3DD PUSH2 0xB55 JUMP JUMPDEST JUMPDEST PUSH1 0x4 PUSH0 SWAP1 SLOAD SWAP1 PUSH2 0x100 EXP SWAP1 DIV PUSH1 0xFF AND PUSH1 0x1 DUP2 GT ISZERO PUSH2 0x3FF JUMPI PUSH2 0x3FE PUSH2 0xB55 JUMP JUMPDEST JUMPDEST EQ SWAP1 POP SWAP1 JUMP JUMPDEST PUSH1 0x2 DUP2 DUP2 SLOAD DUP2 LT PUSH2 0x414 JUMPI PUSH0 DUP1 REVERT JUMPDEST SWAP1 PUSH0 MSTORE PUSH1 0x20 PUSH0 KECCAK256 ADD PUSH0 SWAP2 POP SWAP1 POP SLOAD DUP2 JUMP JUMPDEST PUSH1 0x60 PUSH1 0x40 MLOAD DUP1 PUSH1 0x40 ADD PUSH1 0x40 MSTORE DUP1 PUSH1 0x1C DUP2 MSTORE PUSH1 0x20 ADD PUSH32 0x5468697320697320616E2065787465726E616C2066756E6374696F6E00000000 DUP2 MSTORE POP SWAP1 POP SWAP1 JUMP JUMPDEST DUP1 PUSH0 DUP4 PUSH1 0x40 MLOAD PUSH2 0x472 SWAP2 SWAP1 PUSH2 0xCC2 JUMP JUMPDEST SWAP1 DUP2 MSTORE PUSH1 0x20 ADD PUSH1 0x40 MLOAD DUP1 SWAP2 SUB SWAP1 KECCAK256 DUP2 SWAP1 SSTORE POP POP POP JUMP JUMPDEST PUSH1 0x60 PUSH2 0x492 PUSH2 0x71B JUMP JUMPDEST SWAP1 POP SWAP1 JUMP JUMPDEST PUSH0 DUP2 DUP1 MLOAD PUSH1 0x20 DUP2 ADD DUP3 ADD DUP1 MLOAD DUP5 DUP3 MSTORE PUSH1 0x20 DUP4 ADD PUSH1 0x20 DUP6 ADD KECCAK256 DUP2 DUP4 MSTORE DUP1 SWAP6 POP POP POP POP POP POP PUSH0 SWAP2 POP SWAP1 POP SLOAD DUP2 JUMP JUMPDEST PUSH0 PUSH1 0x4 PUSH0 PUSH2 0x100 EXP DUP2 SLOAD DUP2 PUSH1 0xFF MUL NOT AND SWAP1 DUP4 PUSH1 0x1 DUP2 GT ISZERO PUSH2 0x4E7 JUMPI PUSH2 0x4E6 PUSH2 0xB55 JUMP JUMPDEST JUMPDEST MUL OR SWAP1 SSTORE POP JUMP JUMPDEST PUSH1 0x3 DUP2 DUP2 SLOAD DUP2 LT PUSH2 0x4FD JUMPI PUSH0 DUP1 REVERT JUMPDEST SWAP1 PUSH0 MSTORE PUSH1 0x20 PUSH0 KECCAK256 SWAP1 PUSH1 0x2 MUL ADD PUSH0 SWAP2 POP SWAP1 POP DUP1 PUSH0 ADD DUP1 SLOAD PUSH2 0x51C SWAP1 PUSH2 0xD05 JUMP JUMPDEST DUP1 PUSH1 0x1F ADD PUSH1 0x20 DUP1 SWAP2 DIV MUL PUSH1 0x20 ADD PUSH1 0x40 MLOAD SWAP1 DUP2 ADD PUSH1 0x40 MSTORE DUP1 SWAP3 SWAP2 SWAP1 DUP2 DUP2 MSTORE PUSH1 0x20 ADD DUP3 DUP1 SLOAD PUSH2 0x548 SWAP1 PUSH2 0xD05 JUMP JUMPDEST DUP1 ISZERO PUSH2 0x593 JUMPI DUP1 PUSH1 0x1F LT PUSH2 0x56A JUMPI PUSH2 0x100 DUP1 DUP4 SLOAD DIV MUL DUP4 MSTORE SWAP2 PUSH1 0x20 ADD SWAP2 PUSH2 0x593 JUMP JUMPDEST DUP3 ADD SWAP2 SWAP1 PUSH0 MSTORE PUSH1 0x20 PUSH0 KECCAK256 SWAP1 JUMPDEST DUP2 SLOAD DUP2 MSTORE SWAP1 PUSH1 0x1 ADD SWAP1 PUSH1 0x20 ADD DUP1 DUP4 GT PUSH2 0x576 JUMPI DUP3 SWAP1 SUB PUSH1 0x1F AND DUP3 ADD SWAP2 JUMPDEST POP POP POP POP POP SWAP1 DUP1 PUSH1 0x1 ADD SLOAD SWAP1 POP DUP3 JUMP JUMPDEST PUSH0 PUSH1 0x1 SLOAD SWAP1 POP SWAP1 JUMP JUMPDEST PUSH1 0x2 DUP2 SWAP1 DUP1 PUSH1 0x1 DUP2 SLOAD ADD DUP1 DUP3 SSTORE DUP1 SWAP2 POP POP PUSH1 0x1 SWAP1 SUB SWAP1 PUSH0 MSTORE PUSH1 0x20 PUSH0 KECCAK256 ADD PUSH0 SWAP1 SWAP2 SWAP1 SWAP2 SWAP1 SWAP2 POP SSTORE POP JUMP JUMPDEST PUSH1 0x60 PUSH0 DUP4 DUP4 PUSH1 0x40 MLOAD PUSH1 0x20 ADD PUSH2 0x5EB SWAP3 SWAP2 SWAP1 PUSH2 0xDA3 JUMP JUMPDEST PUSH1 0x40 MLOAD PUSH1 0x20 DUP2 DUP4 SUB SUB DUP2 MSTORE SWAP1 PUSH1 0x40 MSTORE SWAP1 POP DUP1 SWAP2 POP POP SWAP3 SWAP2 POP POP JUMP JUMPDEST DUP1 PUSH1 0x1 DUP2 SWAP1 SSTORE POP PUSH32 0xE5F28171F43FC54876F02589C23CC70D19E06F868CC3811C456E8C61C296A27E DUP2 CALLER PUSH1 0x40 MLOAD PUSH2 0x63E SWAP3 SWAP2 SWAP1 PUSH2 0xE05 JUMP JUMPDEST PUSH1 0x40 MLOAD DUP1 SWAP2 SUB SWAP1 LOG1 POP JUMP JUMPDEST PUSH1 0x1 PUSH1 0x4 PUSH0 PUSH2 0x100 EXP DUP2 SLOAD DUP2 PUSH1 0xFF MUL NOT AND SWAP1 DUP4 PUSH1 0x1 DUP2 GT ISZERO PUSH2 0x66E JUMPI PUSH2 0x66D PUSH2 0xB55 JUMP JUMPDEST JUMPDEST MUL OR SWAP1 SSTORE POP JUMP JUMPDEST PUSH1 0x4 PUSH0 SWAP1 SLOAD SWAP1 PUSH2 0x100 EXP SWAP1 DIV PUSH1 0xFF AND DUP2 JUMP JUMPDEST PUSH0 DUP2 PUSH1 0x1 SLOAD GT ISZERO PUSH2 0x69B JUMPI PUSH1 0x1 SWAP1 POP PUSH2 0x69F JUMP JUMPDEST PUSH0 SWAP1 POP JUMPDEST SWAP2 SWAP1 POP JUMP JUMPDEST PUSH1 0x60 ADDRESS PUSH20 0xFFFFFFFFFFFFFFFFFFFFFFFFFFFFFFFFFFFFFFFF AND PUSH4 0x3A32B549 PUSH1 0x40 MLOAD DUP2 PUSH4 0xFFFFFFFF AND PUSH1 0xE0 SHL DUP2 MSTORE PUSH1 0x4 ADD PUSH0 PUSH1 0x40 MLOAD DUP1 DUP4 SUB DUP2 DUP7 GAS STATICCALL ISZERO DUP1 ISZERO PUSH2 0x6EE JUMPI RETURNDATASIZE PUSH0 DUP1 RETURNDATACOPY RETURNDATASIZE PUSH0 REVERT JUMPDEST POP POP POP POP PUSH1 0x40 MLOAD RETURNDATASIZE PUSH0 DUP3 RETURNDATACOPY RETURNDATASIZE PUSH1 0x1F NOT PUSH1 0x1F DUP3 ADD AND DUP3 ADD DUP1 PUSH1 0x40 MSTORE POP DUP2 ADD SWAP1 PUSH2 0x716 SWAP2 SWAP1 PUSH2 0xE9A JUMP JUMPDEST SWAP1 POP SWAP1 JUMP JUMPDEST PUSH1 0x60 PUSH1 0x40 MLOAD DUP1 PUSH1 0x40 ADD PUSH1 0x40 MSTORE DUP1 PUSH1 0x1C DUP2 MSTORE PUSH1 0x20 ADD PUSH32 0x5468697320697320616E20696E7465726E616C2066756E6374696F6E00000000 DUP2 MSTORE POP SWAP1 POP SWAP1 JUMP JUMPDEST PUSH0 DUP2 SWAP1 POP SWAP2 SWAP1 POP JUMP JUMPDEST PUSH2 0x76A DUP2 PUSH2 0x758 JUMP JUMPDEST DUP3 MSTORE POP POP JUMP JUMPDEST PUSH0 PUSH1 0x20 DUP3 ADD SWAP1 POP PUSH2 0x783 PUSH0 DUP4 ADD DUP5 PUSH2 0x761 JUMP JUMPDEST SWAP3 SWAP2 POP POP JUMP JUMPDEST PUSH0 PUSH1 0x40 MLOAD SWAP1 POP SWAP1 JUMP JUMPDEST PUSH0 DUP1 REVERT JUMPDEST PUSH0 DUP1 REVERT JUMPDEST PUSH2 0x7A3 DUP2 PUSH2 0x758 JUMP JUMPDEST DUP2 EQ PUSH2 0x7AD JUMPI PUSH0 DUP1 REVERT JUMPDEST POP JUMP JUMPDEST PUSH0 DUP2 CALLDATALOAD SWAP1 POP PUSH2 0x7BE DUP2 PUSH2 0x79A JUMP JUMPDEST SWAP3 SWAP2 POP POP JUMP JUMPDEST PUSH0 PUSH1 0x20 DUP3 DUP5 SUB SLT ISZERO PUSH2 0x7D9 JUMPI PUSH2 0x7D8 PUSH2 0x792 JUMP JUMPDEST JUMPDEST PUSH0 PUSH2 0x7E6 DUP5 DUP3 DUP6 ADD PUSH2 0x7B0 JUMP JUMPDEST SWAP2 POP POP SWAP3 SWAP2 POP POP JUMP JUMPDEST PUSH0 DUP2 ISZERO ISZERO SWAP1 POP SWAP2 SWAP1 POP JUMP JUMPDEST PUSH2 0x803 DUP2 PUSH2 0x7EF JUMP JUMPDEST DUP3 MSTORE POP POP JUMP JUMPDEST PUSH0 PUSH1 0x20 DUP3 ADD SWAP1 POP PUSH2 0x81C PUSH0 DUP4 ADD DUP5 PUSH2 0x7FA JUMP JUMPDEST SWAP3 SWAP2 POP POP JUMP JUMPDEST PUSH0 DUP2 MLOAD SWAP1 POP SWAP2 SWAP1 POP JUMP JUMPDEST PUSH0 DUP3 DUP3 MSTORE PUSH1 0x20 DUP3 ADD SWAP1 POP SWAP3 SWAP2 POP POP JUMP JUMPDEST DUP3 DUP2 DUP4 MCOPY PUSH0 DUP4 DUP4 ADD MSTORE POP POP POP JUMP JUMPDEST PUSH0 PUSH1 0x1F NOT PUSH1 0x1F DUP4 ADD AND SWAP1 POP SWAP2 SWAP1 POP JUMP JUMPDEST PUSH0 PUSH2 0x864 DUP3 PUSH2 0x822 JUMP JUMPDEST PUSH2 0x86E DUP2 DUP6 PUSH2 0x82C JUMP JUMPDEST SWAP4 POP PUSH2 0x87E DUP2 DUP6 PUSH1 0x20 DUP7 ADD PUSH2 0x83C JUMP JUMPDEST PUSH2 0x887 DUP2 PUSH2 0x84A JUMP JUMPDEST DUP5 ADD SWAP2 POP POP SWAP3 SWAP2 POP POP JUMP JUMPDEST PUSH0 PUSH1 0x20 DUP3 ADD SWAP1 POP DUP2 DUP2 SUB PUSH0 DUP4 ADD MSTORE PUSH2 0x8AA DUP2 DUP5 PUSH2 0x85A JUMP JUMPDEST SWAP1 POP SWAP3 SWAP2 POP POP JUMP JUMPDEST PUSH0 DUP1 REVERT JUMPDEST PUSH0 DUP1 REVERT JUMPDEST PUSH32 0x4E487B7100000000000000000000000000000000000000000000000000000000 PUSH0 MSTORE PUSH1 0x41 PUSH1 0x4 MSTORE PUSH1 0x24 PUSH0 REVERT JUMPDEST PUSH2 0x8F0 DUP3 PUSH2 0x84A JUMP JUMPDEST DUP2 ADD DUP2 DUP2 LT PUSH8 0xFFFFFFFFFFFFFFFF DUP3 GT OR ISZERO PUSH2 0x90F JUMPI PUSH2 0x90E PUSH2 0x8BA JUMP JUMPDEST JUMPDEST DUP1 PUSH1 0x40 MSTORE POP POP POP JUMP JUMPDEST PUSH0 PUSH2 0x921 PUSH2 0x789 JUMP JUMPDEST SWAP1 POP PUSH2 0x92D DUP3 DUP3 PUSH2 0x8E7 JUMP JUMPDEST SWAP2 SWAP1 POP JUMP JUMPDEST PUSH0 PUSH8 0xFFFFFFFFFFFFFFFF DUP3 GT ISZERO PUSH2 0x94C JUMPI PUSH2 0x94B PUSH2 0x8BA JUMP JUMPDEST JUMPDEST PUSH2 0x955 DUP3 PUSH2 0x84A JUMP JUMPDEST SWAP1 POP PUSH1 0x20 DUP2 ADD SWAP1 POP SWAP2 SWAP1 POP JUMP JUMPDEST DUP3 DUP2 DUP4 CALLDATACOPY PUSH0 DUP4 DUP4 ADD MSTORE POP POP POP JUMP JUMPDEST PUSH0 PUSH2 0x982 PUSH2 0x97D DUP5 PUSH2 0x932 JUMP JUMPDEST PUSH2 0x918 JUMP JUMPDEST SWAP1 POP DUP3 DUP2 MSTORE PUSH1 0x20 DUP2 ADD DUP5 DUP5 DUP5 ADD GT ISZERO PUSH2 0x99E JUMPI PUSH2 0x99D PUSH2 0x8B6 JUMP JUMPDEST JUMPDEST PUSH2 0x9A9 DUP5 DUP3 DUP6 PUSH2 0x962 JUMP JUMPDEST POP SWAP4 SWAP3 POP POP POP JUMP JUMPDEST PUSH0 DUP3 PUSH1 0x1F DUP4 ADD SLT PUSH2 0x9C5 JUMPI PUSH2 0x9C4 PUSH2 0x8B2 JUMP JUMPDEST JUMPDEST DUP2 CALLDATALOAD PUSH2 0x9D5 DUP5 DUP3 PUSH1 0x20 DUP7 ADD PUSH2 0x970 JUMP JUMPDEST SWAP2 POP POP SWAP3 SWAP2 POP POP JUMP JUMPDEST PUSH0 DUP1 PUSH1 0x40 DUP4 DUP6 SUB SLT ISZERO PUSH2 0x9F4 JUMPI PUSH2 0x9F3 PUSH2 0x792 JUMP JUMPDEST JUMPDEST PUSH0 DUP4 ADD CALLDATALOAD PUSH8 0xFFFFFFFFFFFFFFFF DUP2 GT ISZERO PUSH2 0xA11 JUMPI PUSH2 0xA10 PUSH2 0x796 JUMP JUMPDEST JUMPDEST PUSH2 0xA1D DUP6 DUP3 DUP7 ADD PUSH2 0x9B1 JUMP JUMPDEST SWAP3 POP POP PUSH1 0x20 PUSH2 0xA2E DUP6 DUP3 DUP7 ADD PUSH2 0x7B0 JUMP JUMPDEST SWAP2 POP POP SWAP3 POP SWAP3 SWAP1 POP JUMP JUMPDEST PUSH0 PUSH1 0x20 DUP3 DUP5 SUB SLT ISZERO PUSH2 0xA4D JUMPI PUSH2 0xA4C PUSH2 0x792 JUMP JUMPDEST JUMPDEST PUSH0 DUP3 ADD CALLDATALOAD PUSH8 0xFFFFFFFFFFFFFFFF DUP2 GT ISZERO PUSH2 0xA6A JUMPI PUSH2 0xA69 PUSH2 0x796 JUMP JUMPDEST JUMPDEST PUSH2 0xA76 DUP5 DUP3 DUP6 ADD PUSH2 0x9B1 JUMP JUMPDEST SWAP2 POP POP SWAP3 SWAP2 POP POP JUMP JUMPDEST PUSH0 PUSH1 0x40 DUP3 ADD SWAP1 POP DUP2 DUP2 SUB PUSH0 DUP4 ADD MSTORE PUSH2 0xA97 DUP2 DUP6 PUSH2 0x85A JUMP JUMPDEST SWAP1 POP PUSH2 0xAA6 PUSH1 0x20 DUP4 ADD DUP5 PUSH2 0x761 JUMP JUMPDEST SWAP4 SWAP3 POP POP POP JUMP JUMPDEST PUSH0 DUP1 REVERT JUMPDEST PUSH0 DUP1 REVERT JUMPDEST PUSH0 DUP1 DUP4 PUSH1 0x1F DUP5 ADD SLT PUSH2 0xACA JUMPI PUSH2 0xAC9 PUSH2 0x8B2 JUMP JUMPDEST JUMPDEST DUP3 CALLDATALOAD SWAP1 POP PUSH8 0xFFFFFFFFFFFFFFFF DUP2 GT ISZERO PUSH2 0xAE7 JUMPI PUSH2 0xAE6 PUSH2 0xAAD JUMP JUMPDEST JUMPDEST PUSH1 0x20 DUP4 ADD SWAP2 POP DUP4 PUSH1 0x1 DUP3 MUL DUP4 ADD GT ISZERO PUSH2 0xB03 JUMPI PUSH2 0xB02 PUSH2 0xAB1 JUMP JUMPDEST JUMPDEST SWAP3 POP SWAP3 SWAP1 POP JUMP JUMPDEST PUSH0 DUP1 PUSH1 0x20 DUP4 DUP6 SUB SLT ISZERO PUSH2 0xB20 JUMPI PUSH2 0xB1F PUSH2 0x792 JUMP JUMPDEST JUMPDEST PUSH0 DUP4 ADD CALLDATALOAD PUSH8 0xFFFFFFFFFFFFFFFF DUP2 GT ISZERO PUSH2 0xB3D JUMPI PUSH2 0xB3C PUSH2 0x796 JUMP JUMPDEST JUMPDEST PUSH2 0xB49 DUP6 DUP3 DUP7 ADD PUSH2 0xAB5 JUMP JUMPDEST SWAP3 POP SWAP3 POP POP SWAP3 POP SWAP3 SWAP1 POP JUMP JUMPDEST PUSH32 0x4E487B7100000000000000000000000000000000000000000000000000000000 PUSH0 MSTORE PUSH1 0x21 PUSH1 0x4 MSTORE PUSH1 0x24 PUSH0 REVERT JUMPDEST PUSH1 0x2 DUP2 LT PUSH2 0xB93 JUMPI PUSH2 0xB92 PUSH2 0xB55 JUMP JUMPDEST JUMPDEST POP JUMP JUMPDEST PUSH0 DUP2 SWAP1 POP PUSH2 0xBA3 DUP3 PUSH2 0xB82 JUMP JUMPDEST SWAP2 SWAP1 POP JUMP JUMPDEST PUSH0 PUSH2 0xBB2 DUP3 PUSH2 0xB96 JUMP JUMPDEST SWAP1 POP SWAP2 SWAP1 POP JUMP JUMPDEST PUSH2 0xBC2 DUP2 PUSH2 0xBA8 JUMP JUMPDEST DUP3 MSTORE POP POP JUMP JUMPDEST PUSH0 PUSH1 0x20 DUP3 ADD SWAP1 POP PUSH2 0xBDB PUSH0 DUP4 ADD DUP5 PUSH2 0xBB9 JUMP JUMPDEST SWAP3 SWAP2 POP POP JUMP JUMPDEST PUSH32 0x4E487B7100000000000000000000000000000000000000000000000000000000 PUSH0 MSTORE PUSH1 0x11 PUSH1 0x4 MSTORE PUSH1 0x24 PUSH0 REVERT JUMPDEST PUSH0 PUSH2 0xC18 DUP3 PUSH2 0x758 JUMP JUMPDEST SWAP2 POP PUSH2 0xC23 DUP4 PUSH2 0x758 JUMP JUMPDEST SWAP3 POP DUP3 DUP3 ADD SWAP1 POP DUP1 DUP3 GT ISZERO PUSH2 0xC3B JUMPI PUSH2 0xC3A PUSH2 0xBE1 JUMP JUMPDEST JUMPDEST SWAP3 SWAP2 POP POP JUMP JUMPDEST PUSH0 PUSH2 0xC4B DUP3 PUSH2 0x758 JUMP JUMPDEST SWAP2 POP PUSH32 0xFFFFFFFFFFFFFFFFFFFFFFFFFFFFFFFFFFFFFFFFFFFFFFFFFFFFFFFFFFFFFFFF DUP3 SUB PUSH2 0xC7D JUMPI PUSH2 0xC7C PUSH2 0xBE1 JUMP JUMPDEST JUMPDEST PUSH1 0x1 DUP3 ADD SWAP1 POP SWAP2 SWAP1 POP JUMP JUMPDEST PUSH0 DUP2 SWAP1 POP SWAP3 SWAP2 POP POP JUMP JUMPDEST PUSH0 PUSH2 0xC9C DUP3 PUSH2 0x822 JUMP JUMPDEST PUSH2 0xCA6 DUP2 DUP6 PUSH2 0xC88 JUMP JUMPDEST SWAP4 POP PUSH2 0xCB6 DUP2 DUP6 PUSH1 0x20 DUP7 ADD PUSH2 0x83C JUMP JUMPDEST DUP1 DUP5 ADD SWAP2 POP POP SWAP3 SWAP2 POP POP JUMP JUMPDEST PUSH0 PUSH2 0xCCD DUP3 DUP5 PUSH2 0xC92 JUMP JUMPDEST SWAP2 POP DUP2 SWAP1 POP SWAP3 SWAP2 POP POP JUMP JUMPDEST PUSH32 0x4E487B7100000000000000000000000000000000000000000000000000000000 PUSH0 MSTORE PUSH1 0x22 PUSH1 0x4 MSTORE PUSH1 0x24 PUSH0 REVERT JUMPDEST PUSH0 PUSH1 0x2 DUP3 DIV SWAP1 POP PUSH1 0x1 DUP3 AND DUP1 PUSH2 0xD1C JUMPI PUSH1 0x7F DUP3 AND SWAP2 POP JUMPDEST PUSH1 0x20 DUP3 LT DUP2 SUB PUSH2 0xD2F JUMPI PUSH2 0xD2E PUSH2 0xCD8 JUMP JUMPDEST JUMPDEST POP SWAP2 SWAP1 POP JUMP JUMPDEST PUSH0 PUSH2 0xD40 DUP4 DUP6 PUSH2 0xC88 JUMP JUMPDEST SWAP4 POP PUSH2 0xD4D DUP4 DUP6 DUP5 PUSH2 0x962 JUMP JUMPDEST DUP3 DUP5 ADD SWAP1 POP SWAP4 SWAP3 POP POP POP JUMP JUMPDEST PUSH32 0x20697320617765736F6D65210000000000000000000000000000000000000000 PUSH0 DUP3 ADD MSTORE POP JUMP JUMPDEST PUSH0 PUSH2 0xD8D PUSH1 0xC DUP4 PUSH2 0xC88 JUMP JUMPDEST SWAP2 POP PUSH2 0xD98 DUP3 PUSH2 0xD59 JUMP JUMPDEST PUSH1 0xC DUP3 ADD SWAP1 POP SWAP2 SWAP1 POP JUMP JUMPDEST PUSH0 PUSH2 0xDAF DUP3 DUP5 DUP7 PUSH2 0xD35 JUMP JUMPDEST SWAP2 POP PUSH2 0xDBA DUP3 PUSH2 0xD81 JUMP JUMPDEST SWAP2 POP DUP2 SWAP1 POP SWAP4 SWAP3 POP POP POP JUMP JUMPDEST PUSH0 PUSH20 0xFFFFFFFFFFFFFFFFFFFFFFFFFFFFFFFFFFFFFFFF DUP3 AND SWAP1 POP SWAP2 SWAP1 POP JUMP JUMPDEST PUSH0 PUSH2 0xDEF DUP3 PUSH2 0xDC6 JUMP JUMPDEST SWAP1 POP SWAP2 SWAP1 POP JUMP JUMPDEST PUSH2 0xDFF DUP2 PUSH2 0xDE5 JUMP JUMPDEST DUP3 MSTORE POP POP JUMP JUMPDEST PUSH0 PUSH1 0x40 DUP3 ADD SWAP1 POP PUSH2 0xE18 PUSH0 DUP4 ADD DUP6 PUSH2 0x761 JUMP JUMPDEST PUSH2 0xE25 PUSH1 0x20 DUP4 ADD DUP5 PUSH2 0xDF6 JUMP JUMPDEST SWAP4 SWAP3 POP POP POP JUMP JUMPDEST PUSH0 PUSH2 0xE3E PUSH2 0xE39 DUP5 PUSH2 0x932 JUMP JUMPDEST PUSH2 0x918 JUMP JUMPDEST SWAP1 POP DUP3 DUP2 MSTORE PUSH1 0x20 DUP2 ADD DUP5 DUP5 DUP5 ADD GT ISZERO PUSH2 0xE5A JUMPI PUSH2 0xE59 PUSH2 0x8B6 JUMP JUMPDEST JUMPDEST PUSH2 0xE65 DUP5 DUP3 DUP6 PUSH2 0x83C JUMP JUMPDEST POP SWAP4 SWAP3 POP POP POP JUMP JUMPDEST PUSH0 DUP3 PUSH1 0x1F DUP4 ADD SLT PUSH2 0xE81 JUMPI PUSH2 0xE80 PUSH2 0x8B2 JUMP JUMPDEST JUMPDEST DUP2 MLOAD PUSH2 0xE91 DUP5 DUP3 PUSH1 0x20 DUP7 ADD PUSH2 0xE2C JUMP JUMPDEST SWAP2 POP POP SWAP3 SWAP2 POP POP JUMP JUMPDEST PUSH0 PUSH1 0x20 DUP3 DUP5 SUB SLT ISZERO PUSH2 0xEAF JUMPI PUSH2 0xEAE PUSH2 0x792 JUMP JUMPDEST JUMPDEST PUSH0 DUP3 ADD MLOAD PUSH8 0xFFFFFFFFFFFFFFFF DUP2 GT ISZERO PUSH2 0xECC JUMPI PUSH2 0xECB PUSH2 0x796 JUMP JUMPDEST JUMPDEST PUSH2 0xED8 DUP5 DUP3 DUP6 ADD PUSH2 0xE6D JUMP JUMPDEST SWAP2 POP POP SWAP3 SWAP2 POP POP JUMP INVALID LOG2 PUSH5 0x6970667358 0x22 SLT KECCAK256 CALLCODE 0xC9 SWAP9 0xC8 PUSH19 0x4DD4037465CCE65334E87950425E15D7885FEB 0xB5 0xE9 PC 0x4C DUP16 SAR CALLVALUE SWAP3 PUSH5 0x736F6C6343 STOP ADDMOD BYTE STOP CALLER "
		},
		"gasEstimates": {
			"creation": {
				"codeDepositCost": "772600",
				"executionCost": "803",
				"totalCost": "773403"
			},
			"external": {
				"activateContract()": "24539",
				"addFavoriteNumber(uint256)": "46888",
				"addPerson(string,uint256)": "infinite",
				"callInternalFunction()": "infinite",
				"concatenateString(string)": "infinite",
				"deactivateContract()": "24473",
				"externalFunction()": "infinite",
				"favoriteNumbers(uint256)": "infinite",
				"getFavoriteNumber()": "2477",
				"isActive()": "2599",
				"isGreaterThan(uint256)": "2824",
				"nameToFavoriteNumber(string)": "infinite",
				"people(uint256)": "infinite",
				"state()": "2620",
				"storeNumber(uint256)": "infinite",
				"sumToFavoriteNumber()": "infinite",
				"testExternalFunction()": "infinite",
				"updateNumber(uint256)": "infinite"
			},
			"internal": {
				"internalFunction()": "infinite"
			}
		},
		"methodIdentifiers": {
			"activateContract()": "8fda356d",
			"addFavoriteNumber(uint256)": "a7e1a364",
			"addPerson(string,uint256)": "6f760f41",
			"callInternalFunction()": "8701f8ca",
			"concatenateString(string)": "b39e12b5",
			"deactivateContract()": "bca353be",
			"externalFunction()": "3a32b549",
			"favoriteNumbers(uint256)": "29cd1d96",
			"getFavoriteNumber()": "a621d15e",
			"isActive()": "22f3e2d4",
			"isGreaterThan(uint256)": "cb6a33f8",
			"nameToFavoriteNumber(string)": "8bab8dd5",
			"people(uint256)": "9e7a13ad",
			"state()": "c19d93fb",
			"storeNumber(uint256)": "b6339418",
			"sumToFavoriteNumber()": "0cd2636e",
			"testExternalFunction()": "e0819c9a",
			"updateNumber(uint256)": "1db05a88"
		}
	},
	"abi": [
		{
			"anonymous": false,
			"inputs": [
				{
					"indexed": false,
					"internalType": "uint256",
					"name": "newNumber",
					"type": "uint256"
				},
				{
					"indexed": false,
					"internalType": "address",
					"name": "updatedBy",
					"type": "address"
				}
			],
			"name": "NumberUpdated",
			"type": "event"
		},
		{
			"inputs": [],
			"name": "activateContract",
			"outputs": [],
			"stateMutability": "nonpayable",
			"type": "function"
		},
		{
			"inputs": [
				{
					"internalType": "uint256",
					"name": "_number",
					"type": "uint256"
				}
			],
			"name": "addFavoriteNumber",
			"outputs": [],
			"stateMutability": "nonpayable",
			"type": "function"
		},
		{
			"inputs": [
				{
					"internalType": "string",
					"name": "_name",
					"type": "string"
				},
				{
					"internalType": "uint256",
					"name": "_favoriteNumber",
					"type": "uint256"
				}
			],
			"name": "addPerson",
			"outputs": [],
			"stateMutability": "nonpayable",
			"type": "function"
		},
		{
			"inputs": [],
			"name": "callInternalFunction",
			"outputs": [
				{
					"internalType": "string",
					"name": "",
					"type": "string"
				}
			],
			"stateMutability": "pure",
			"type": "function"
		},
		{
			"inputs": [
				{
					"internalType": "string",
					"name": "_inputString",
					"type": "string"
				}
			],
			"name": "concatenateString",
			"outputs": [
				{
					"internalType": "string",
					"name": "",
					"type": "string"
				}
			],
			"stateMutability": "pure",
			"type": "function"
		},
		{
			"inputs": [],
			"name": "deactivateContract",
			"outputs": [],
			"stateMutability": "nonpayable",
			"type": "function"
		},
		{
			"inputs": [],
			"name": "externalFunction",
			"outputs": [
				{
					"internalType": "string",
					"name": "",
					"type": "string"
				}
			],
			"stateMutability": "pure",
			"type": "function"
		},
		{
			"inputs": [
				{
					"internalType": "uint256",
					"name": "",
					"type": "uint256"
				}
			],
			"name": "favoriteNumbers",
			"outputs": [
				{
					"internalType": "uint256",
					"name": "",
					"type": "uint256"
				}
			],
			"stateMutability": "view",
			"type": "function"
		},
		{
			"inputs": [],
			"name": "getFavoriteNumber",
			"outputs": [
				{
					"internalType": "uint256",
					"name": "",
					"type": "uint256"
				}
			],
			"stateMutability": "view",
			"type": "function"
		},
		{
			"inputs": [],
			"name": "isActive",
			"outputs": [
				{
					"internalType": "bool",
					"name": "",
					"type": "bool"
				}
			],
			"stateMutability": "view",
			"type": "function"
		},
		{
			"inputs": [
				{
					"internalType": "uint256",
					"name": "_compareValue",
					"type": "uint256"
				}
			],
			"name": "isGreaterThan",
			"outputs": [
				{
					"internalType": "bool",
					"name": "",
					"type": "bool"
				}
			],
			"stateMutability": "view",
			"type": "function"
		},
		{
			"inputs": [
				{
					"internalType": "string",
					"name": "",
					"type": "string"
				}
			],
			"name": "nameToFavoriteNumber",
			"outputs": [
				{
					"internalType": "uint256",
					"name": "",
					"type": "uint256"
				}
			],
			"stateMutability": "view",
			"type": "function"
		},
		{
			"inputs": [
				{
					"internalType": "uint256",
					"name": "",
					"type": "uint256"
				}
			],
			"name": "people",
			"outputs": [
				{
					"internalType": "string",
					"name": "name",
					"type": "string"
				},
				{
					"internalType": "uint256",
					"name": "favoriteNumber",
					"type": "uint256"
				}
			],
			"stateMutability": "view",
			"type": "function"
		},
		{
			"inputs": [],
			"name": "state",
			"outputs": [
				{
					"internalType": "enum SimpleStorage.ContractState",
					"name": "",
					"type": "uint8"
				}
			],
			"stateMutability": "view",
			"type": "function"
		},
		{
			"inputs": [
				{
					"internalType": "uint256",
					"name": "_favoriteNumber",
					"type": "uint256"
				}
			],
			"name": "storeNumber",
			"outputs": [],
			"stateMutability": "nonpayable",
			"type": "function"
		},
		{
			"inputs": [],
			"name": "sumToFavoriteNumber",
			"outputs": [
				{
					"internalType": "uint256",
					"name": "",
					"type": "uint256"
				}
			],
			"stateMutability": "view",
			"type": "function"
		},
		{
			"inputs": [],
			"name": "testExternalFunction",
			"outputs": [
				{
					"internalType": "string",
					"name": "",
					"type": "string"
				}
			],
			"stateMutability": "view",
			"type": "function"
		},
		{
			"inputs": [
				{
					"internalType": "uint256",
					"name": "_newNumber",
					"type": "uint256"
				}
			],
			"name": "updateNumber",
			"outputs": [
				{
					"internalType": "uint256",
					"name": "",
					"type": "uint256"
				}
			],
			"stateMutability": "pure",
			"type": "function"
		}
	]
}